{"abi":[{"type":"function","name":"auctionCount","inputs":[],"outputs":[{"name":"","type":"uint256","internalType":"uint256"}],"stateMutability":"view"},{"type":"function","name":"auction_info","inputs":[{"name":"_auctionId","type":"uint256","internalType":"uint256"}],"outputs":[{"name":"","type":"tuple","internalType":"struct EnglishAuction.Auction","components":[{"name":"nft","type":"address","internalType":"contract IERC721"},{"name":"nftId","type":"uint256","internalType":"uint256"},{"name":"seller","type":"address","internalType":"address payable"},{"name":"startingBid","type":"uint256","internalType":"uint256"},{"name":"endAt","type":"uint256","internalType":"uint256"},{"name":"started","type":"bool","internalType":"bool"},{"name":"ended","type":"bool","internalType":"bool"},{"name":"highestBidder","type":"address","internalType":"address"},{"name":"highestBid","type":"uint256","internalType":"uint256"},{"name":"reservePrice","type":"uint256","internalType":"uint256"},{"name":"cancelled","type":"bool","internalType":"bool"}]}],"stateMutability":"view"},{"type":"function","name":"auctions","inputs":[{"name":"","type":"uint256","internalType":"uint256"}],"outputs":[{"name":"nft","type":"address","internalType":"contract IERC721"},{"name":"nftId","type":"uint256","internalType":"uint256"},{"name":"seller","type":"address","internalType":"address payable"},{"name":"startingBid","type":"uint256","internalType":"uint256"},{"name":"endAt","type":"uint256","internalType":"uint256"},{"name":"started","type":"bool","internalType":"bool"},{"name":"ended","type":"bool","internalType":"bool"},{"name":"highestBidder","type":"address","internalType":"address"},{"name":"highestBid","type":"uint256","internalType":"uint256"},{"name":"reservePrice","type":"uint256","internalType":"uint256"},{"name":"cancelled","type":"bool","internalType":"bool"}],"stateMutability":"view"},{"type":"function","name":"bid","inputs":[{"name":"_auctionId","type":"uint256","internalType":"uint256"}],"outputs":[],"stateMutability":"payable"},{"type":"function","name":"bids","inputs":[{"name":"","type":"uint256","internalType":"uint256"},{"name":"","type":"address","internalType":"address"}],"outputs":[{"name":"","type":"uint256","internalType":"uint256"}],"stateMutability":"view"},{"type":"function","name":"cancel","inputs":[{"name":"_auctionId","type":"uint256","internalType":"uint256"}],"outputs":[],"stateMutability":"nonpayable"},{"type":"function","name":"create","inputs":[{"name":"_nft","type":"address","internalType":"contract IERC721"},{"name":"_nftId","type":"uint256","internalType":"uint256"},{"name":"_startingBid","type":"uint256","internalType":"uint256"},{"name":"_duration","type":"uint256","internalType":"uint256"},{"name":"_reservePrice","type":"uint256","internalType":"uint256"}],"outputs":[],"stateMutability":"nonpayable"},{"type":"function","name":"deposit_balance","inputs":[{"name":"_auctionId","type":"uint256","internalType":"uint256"},{"name":"user","type":"address","internalType":"address"}],"outputs":[{"name":"","type":"uint256","internalType":"uint256"}],"stateMutability":"view"},{"type":"function","name":"end","inputs":[{"name":"_auctionId","type":"uint256","internalType":"uint256"}],"outputs":[],"stateMutability":"nonpayable"},{"type":"function","name":"start","inputs":[{"name":"_auctionId","type":"uint256","internalType":"uint256"}],"outputs":[],"stateMutability":"nonpayable"},{"type":"function","name":"total_auctions","inputs":[],"outputs":[{"name":"","type":"uint256","internalType":"uint256"}],"stateMutability":"view"},{"type":"function","name":"withdraw","inputs":[{"name":"_auctionId","type":"uint256","internalType":"uint256"}],"outputs":[],"stateMutability":"nonpayable"},{"type":"event","name":"AuctionCreated","inputs":[{"name":"auctionId","type":"uint256","indexed":true,"internalType":"uint256"},{"name":"seller","type":"address","indexed":true,"internalType":"address"},{"name":"duration","type":"uint256","indexed":false,"internalType":"uint256"},{"name":"reservePrice","type":"uint256","indexed":false,"internalType":"uint256"}],"anonymous":false},{"type":"event","name":"Bid","inputs":[{"name":"auctionId","type":"uint256","indexed":true,"internalType":"uint256"},{"name":"sender","type":"address","indexed":true,"internalType":"address"},{"name":"amount","type":"uint256","indexed":false,"internalType":"uint256"}],"anonymous":false},{"type":"event","name":"Cancel","inputs":[{"name":"auctionId","type":"uint256","indexed":true,"internalType":"uint256"}],"anonymous":false},{"type":"event","name":"End","inputs":[{"name":"auctionId","type":"uint256","indexed":true,"internalType":"uint256"},{"name":"winner","type":"address","indexed":false,"internalType":"address"},{"name":"amount","type":"uint256","indexed":false,"internalType":"uint256"}],"anonymous":false},{"type":"event","name":"Start","inputs":[{"name":"auctionId","type":"uint256","indexed":true,"internalType":"uint256"}],"anonymous":false},{"type":"event","name":"Withdraw","inputs":[{"name":"auctionId","type":"uint256","indexed":true,"internalType":"uint256"},{"name":"bidder","type":"address","indexed":true,"internalType":"address"},{"name":"amount","type":"uint256","indexed":false,"internalType":"uint256"}],"anonymous":false}],"bytecode":{"object":"0x608060405234801561001057600080fd5b506110d7806100206000396000f3fe6080604052600436106100a75760003560e01c8063454a2ab311610064578063454a2ab31461018f578063571a26a0146101a257806370b881661461029957806395805dad146103c7578063d691a274146103e7578063f9b6b0c4146103fc57600080fd5b806308f00e12146100ac5780630ad24528146100df5780632ad71573146101015780632e1a7d4d146101175780633f1ffcec1461013757806340e58ee51461016f575b600080fd5b3480156100b857600080fd5b506100cc6100c7366004610ecf565b61041c565b6040519081526020015b60405180910390f35b3480156100eb57600080fd5b506100ff6100fa366004610eff565b610446565b005b34801561010d57600080fd5b506100cc60005481565b34801561012357600080fd5b506100ff610132366004610eff565b610748565b34801561014357600080fd5b506100cc610152366004610ecf565b600260209081526000928352604080842090915290825290205481565b34801561017b57600080fd5b506100ff61018a366004610eff565b610829565b6100ff61019d366004610eff565b610a0f565b3480156101ae57600080fd5b5061022b6101bd366004610eff565b60016020819052600091825260409091208054918101546002820154600383015460048401546005850154600686015460078701546008909701546001600160a01b03988916989697958716969495939460ff8085169561010086048216956201000090049092169392168b565b604080516001600160a01b039c8d168152602081019b909b52988b16988a01989098526060890196909652608088019490945291151560a0870152151560c086015290941660e0840152610100830193909352610120820192909252901515610140820152610160016100d6565b3480156102a557600080fd5b506103ba6102b4366004610eff565b6040805161016081018252600080825260208201819052918101829052606081018290526080810182905260a0810182905260c0810182905260e08101829052610100810182905261012081018290526101408101919091525060009081526001602081815260409283902083516101608101855281546001600160a01b039081168252938201549281019290925260028101548316938201939093526003830154606082015260048301546080820152600583015460ff808216151560a08401526101008083048216151560c08501526201000090920490931660e0830152600684015490820152600783015461012082015260089092015416151561014082015290565b6040516100d69190610f18565b3480156103d357600080fd5b506100ff6103e2366004610eff565b610be6565b3480156103f357600080fd5b506000546100cc565b34801561040857600080fd5b506100ff610417366004610fd0565b610d9d565b60008281526002602090815260408083206001600160a01b03851684529091529020545b92915050565b6000818152600160205260409020600581015460ff1661049b5760405162461bcd60e51b815260206004820152600b60248201526a139bdd081cdd185c9d195960aa1b60448201526064015b60405180910390fd5b8060040154421015806104b25750600881015460ff165b6104ea5760405162461bcd60e51b8152602060048201526009602482015268139bdd08195b99195960ba1b6044820152606401610492565b6005810154610100900460ff16156105145760405162461bcd60e51b815260040161049290611014565b60058101805461ff00191661010017908190556201000090046001600160a01b03161580159061054c57508060070154816006015410155b801561055d5750600881015460ff16155b1561061e57805460058201546001830154604051632142170760e11b81526001600160a01b03938416936342842e0e936105a793309362010000909204909216919060040161103b565b600060405180830381600087803b1580156105c157600080fd5b505af11580156105d5573d6000803e3d6000fd5b505050600282015460068301546040516001600160a01b03909216925080156108fc02916000818181858888f19350505050158015610618573d6000803e3d6000fd5b506106ef565b805460028201546001830154604051632142170760e11b81526001600160a01b03938416936342842e0e9361065c933093929091169160040161103b565b600060405180830381600087803b15801561067657600080fd5b505af115801561068a573d6000803e3d6000fd5b50505060058201546201000090046001600160a01b03161590506106ef576006810154600083815260026020908152604080832060058601546201000090046001600160a01b03168452909152812080549091906106e9908490611075565b90915550505b6005810154600682015460408051620100009093046001600160a01b03168352602083019190915283917fad71bc980e1f9155e488acf543cc5276beae185d612505ea3eaff929e4fe37f0910160405180910390a25050565b6000818152600260209081526040808320338452909152902054806107a65760405162461bcd60e51b81526020600482015260146024820152734e6f2066756e647320746f20776974686472617760601b6044820152606401610492565b600082815260026020908152604080832033808552925280832083905551909183156108fc02918491818181858888f193505050501580156107ec573d6000803e3d6000fd5b50604051818152339083907f9da6493a92039daf47d1f2d7a782299c5994c6323eb1e972f69c432089ec52bf906020015b60405180910390a35050565b600081815260016020526040902060028101546001600160a01b031633146108805760405162461bcd60e51b815260206004820152600a6024820152692737ba1039b2b63632b960b11b6044820152606401610492565b6005810154610100900460ff16156108aa5760405162461bcd60e51b815260040161049290611014565b600881015460ff16156108f35760405162461bcd60e51b8152602060048201526011602482015270105b1c9958591e4818d85b98d95b1b1959607a1b6044820152606401610492565b60088101805460ff1916600117905560058101805461ff00191661010017908190556201000090046001600160a01b031615610970576006810154600083815260026020908152604080832060058601546201000090046001600160a01b031684529091528120805490919061096a908490611075565b90915550505b805460028201546001830154604051632142170760e11b81526001600160a01b03938416936342842e0e936109ae933093929091169160040161103b565b600060405180830381600087803b1580156109c857600080fd5b505af11580156109dc573d6000803e3d6000fd5b50506040518492507f8bf30e7ff26833413be5f69e1d373744864d600b664204b4a2f9844a8eedb9ed9150600090a25050565b6000818152600160205260409020600581015460ff16610a5f5760405162461bcd60e51b815260206004820152600b60248201526a139bdd081cdd185c9d195960aa1b6044820152606401610492565b80600401544210610a9a5760405162461bcd60e51b8152602060048201526005602482015264115b99195960da1b6044820152606401610492565b600881015460ff1615610adb5760405162461bcd60e51b815260206004820152600960248201526810d85b98d95b1b195960ba1b6044820152606401610492565b80600301543410158015610af25750806006015434115b610b2c5760405162461bcd60e51b815260206004820152600b60248201526a42696420746f6f206c6f7760a81b6044820152606401610492565b60058101546201000090046001600160a01b031615610b8c576006810154600083815260026020908152604080832060058601546201000090046001600160a01b0316845290915281208054909190610b86908490611075565b90915550505b60058101805462010000600160b01b0319163362010000810291909117909155346006830181905560405190815283907fdcd726e11f8b5e160f00290f0fe3a1abb547474e53a8e7a8f49a85e7b1ca31999060200161081d565b600081815260016020526040902060028101546001600160a01b03163314610c3d5760405162461bcd60e51b815260206004820152600a6024820152692737ba1039b2b63632b960b11b6044820152606401610492565b600581015460ff1615610c845760405162461bcd60e51b815260206004820152600f60248201526e105b1c9958591e481cdd185c9d1959608a1b6044820152606401610492565b6005810154610100900460ff1615610cae5760405162461bcd60e51b815260040161049290611014565b600881015460ff1615610cf75760405162461bcd60e51b8152602060048201526011602482015270105b1c9958591e4818d85b98d95b1b1959607a1b6044820152606401610492565b805460018201546040516323b872dd60e01b81526001600160a01b03909216916323b872dd91610d2d913391309160040161103b565b600060405180830381600087803b158015610d4757600080fd5b505af1158015610d5b573d6000803e3d6000fd5b50505060058201805460ff191660011790555060405182907ff06a29c94c6f4edc1085072972d9441f7603e81c8535a308f214285d0653c85090600090a25050565b60008211610df95760405162461bcd60e51b8152602060048201526024808201527f4475726174696f6e2073686f756c642062652067726561746572207468616e206044820152637a65726f60e01b6064820152608401610492565b6000600160008060008154610e0d90611088565b91829055508152602081019190915260400160002080546001600160a01b0388166001600160a01b03199182161782556001820187905560028201805490911633179055600381018590559050610e648342611075565b60048201556007810182905560005460408051858152602081018590523392917fc9050d42180a61cb0d9ebb8ad118b62fe6eab12cf12ff752c4a0cc7da9ddf627910160405180910390a3505050505050565b6001600160a01b0381168114610ecc57600080fd5b50565b60008060408385031215610ee257600080fd5b823591506020830135610ef481610eb7565b809150509250929050565b600060208284031215610f1157600080fd5b5035919050565b81516001600160a01b031681526101608101602083015160208301526040830151610f4e60408401826001600160a01b03169052565b50606083015160608301526080830151608083015260a0830151610f7660a084018215159052565b5060c0830151610f8a60c084018215159052565b5060e0830151610fa560e08401826001600160a01b03169052565b5061010083810151908301526101208084015190830152610140928301511515929091019190915290565b600080600080600060a08688031215610fe857600080fd5b8535610ff381610eb7565b97602087013597506040870135966060810135965060800135945092505050565b6020808252600d908201526c105b1c9958591e48195b991959609a1b604082015260600190565b6001600160a01b039384168152919092166020820152604081019190915260600190565b634e487b7160e01b600052601160045260246000fd5b808201808211156104405761044061105f565b60006001820161109a5761109a61105f565b506001019056fea264697066735822122051c306e8f02de4270cef0640e51dafbae295e2f73ed6591d24f012007c2f5d2764736f6c63430008180033","linkReferences":{}},"methodIdentifiers":{"auctionCount()":"2ad71573","auction_info(uint256)":"70b88166","auctions(uint256)":"571a26a0","bid(uint256)":"454a2ab3","bids(uint256,address)":"3f1ffcec","cancel(uint256)":"40e58ee5","create(address,uint256,uint256,uint256,uint256)":"f9b6b0c4","deposit_balance(uint256,address)":"08f00e12","end(uint256)":"0ad24528","start(uint256)":"95805dad","total_auctions()":"d691a274","withdraw(uint256)":"2e1a7d4d"},"id":33}